{
  "contractName": "Pharmacist",
  "abi": [
    {
      "inputs": [],
      "stateMutability": "nonpayable",
      "type": "constructor"
    },
    {
      "anonymous": false,
      "inputs": [
        {
          "indexed": true,
          "internalType": "uint256",
          "name": "date",
          "type": "uint256"
        },
        {
          "indexed": true,
          "internalType": "address",
          "name": "from",
          "type": "address"
        },
        {
          "indexed": false,
          "internalType": "uint256",
          "name": "weight",
          "type": "uint256"
        },
        {
          "indexed": false,
          "internalType": "uint256",
          "name": "quantity",
          "type": "uint256"
        }
      ],
      "name": "NewUpdate",
      "type": "event"
    },
    {
      "inputs": [
        {
          "internalType": "uint256",
          "name": "_weight",
          "type": "uint256"
        },
        {
          "internalType": "uint256",
          "name": "_quantity",
          "type": "uint256"
        }
      ],
      "name": "update",
      "outputs": [],
      "stateMutability": "nonpayable",
      "type": "function"
    },
    {
      "inputs": [],
      "name": "getWeight",
      "outputs": [
        {
          "internalType": "uint256",
          "name": "",
          "type": "uint256"
        }
      ],
      "stateMutability": "view",
      "type": "function",
      "constant": true
    },
    {
      "inputs": [],
      "name": "getQuantity",
      "outputs": [
        {
          "internalType": "uint256",
          "name": "",
          "type": "uint256"
        }
      ],
      "stateMutability": "view",
      "type": "function",
      "constant": true
    }
  ],
  "bytecode": "0x608060405234801561001057600080fd5b5073eb20f0832ee83e80a18de45c4449e7379c5f6bf8600260006101000a81548173ffffffffffffffffffffffffffffffffffffffff021916908373ffffffffffffffffffffffffffffffffffffffff160217905550610218806100756000396000f3fe608060405234801561001057600080fd5b50600436106100415760003560e01c80630115949c146100465780632fb565e814610064578063a9b4b78014610080575b600080fd5b61004e61009e565b60405161005b919061012d565b60405180910390f35b61007e60048036038101906100799190610179565b6100a8565b005b61008861010b565b604051610095919061012d565b60405180910390f35b6000600154905090565b81600081905550806001819055503373ffffffffffffffffffffffffffffffffffffffff16427f6e5c431f99f0d1e3e9326f78c30a4f4546deef71e00300cba8ae81b48c9db4a884846040516100ff9291906101b9565b60405180910390a35050565b60008054905090565b6000819050919050565b61012781610114565b82525050565b6000602082019050610142600083018461011e565b92915050565b600080fd5b61015681610114565b811461016157600080fd5b50565b6000813590506101738161014d565b92915050565b600080604083850312156101905761018f610148565b5b600061019e85828601610164565b92505060206101af85828601610164565b9150509250929050565b60006040820190506101ce600083018561011e565b6101db602083018461011e565b939250505056fea264697066735822122019152a333083338d92a8305f92b620aeb9e3df29ee10adc35e13a727e2ef345f64736f6c634300080d0033",
  "immutableReferences": {},
  "source": "// SPDX-License-Identifier: MIT\npragma solidity >=0.4.22 <0.9.0;\n\ncontract Pharmacist{\n    uint weight;\n    uint quantity;\n    address adOfPharmacist;\n\n    constructor(){\n        adOfPharmacist = 0xeB20F0832eE83E80a18dE45C4449E7379c5F6BF8;\n    }\n\n    event NewUpdate(\n        uint indexed date,\n        address indexed from,\n        uint weight,\n        uint quantity\n    );\n\n    function update(uint _weight, uint _quantity) external{\n        // require(to==adOfPharmacist,'receiver was not the correct node');\n        weight = _weight;\n        quantity = _quantity;\n        emit NewUpdate(block.timestamp,msg.sender,_weight,_quantity);\n    }\n\n    function getWeight() external view returns(uint){\n        return weight;\n    }\n\n    function getQuantity() external view returns(uint){\n        return quantity;\n    }\n}",
  "sourcePath": "/Users/shubhkathuria/Desktop/lax/purelife/templahacks/contracts/Pharmacist.sol",
  "compiler": {
    "name": "solc",
    "version": "0.8.13+commit.abaa5c0e.Emscripten.clang"
  },
  "schemaVersion": "3.4.7",
  "updatedAt": "2022-04-17T01:30:56.865Z",
  "networkType": "ethereum",
  "devdoc": {
    "kind": "dev",
    "methods": {},
    "version": 1
  },
  "userdoc": {
    "kind": "user",
    "methods": {},
    "version": 1
  }
}