{
  "contractName": "Pharmacist",
  "abi": [
    {
      "anonymous": false,
      "inputs": [
        {
          "indexed": true,
          "internalType": "uint256",
          "name": "date",
          "type": "uint256"
        },
        {
          "indexed": true,
          "internalType": "address",
          "name": "from",
          "type": "address"
        },
        {
          "indexed": true,
          "internalType": "address",
          "name": "to",
          "type": "address"
        },
        {
          "indexed": false,
          "internalType": "uint256",
          "name": "weight",
          "type": "uint256"
        },
        {
          "indexed": false,
          "internalType": "uint256",
          "name": "quantity",
          "type": "uint256"
        }
      ],
      "name": "NewUpdate",
      "type": "event"
    },
    {
      "inputs": [
        {
          "internalType": "address",
          "name": "to",
          "type": "address"
        },
        {
          "internalType": "uint256",
          "name": "_weight",
          "type": "uint256"
        },
        {
          "internalType": "uint256",
          "name": "_quantity",
          "type": "uint256"
        }
      ],
      "name": "update",
      "outputs": [],
      "stateMutability": "nonpayable",
      "type": "function"
    },
    {
      "inputs": [],
      "name": "getWeight",
      "outputs": [
        {
          "internalType": "uint256",
          "name": "",
          "type": "uint256"
        }
      ],
      "stateMutability": "view",
      "type": "function",
      "constant": true
    },
    {
      "inputs": [],
      "name": "getQuantity",
      "outputs": [
        {
          "internalType": "uint256",
          "name": "",
          "type": "uint256"
        }
      ],
      "stateMutability": "view",
      "type": "function",
      "constant": true
    }
  ],
  "bytecode": "0x608060405234801561001057600080fd5b506102a1806100206000396000f3fe608060405234801561001057600080fd5b50600436106100415760003560e01c80630115949c14610046578063a9b4b78014610064578063d09b6d4314610082575b600080fd5b61004e61009e565b60405161005b9190610145565b60405180910390f35b61006c6100a8565b6040516100799190610145565b60405180910390f35b61009c600480360381019061009791906101ef565b6100b1565b005b6000600154905090565b60008054905090565b81600081905550806001819055508273ffffffffffffffffffffffffffffffffffffffff163373ffffffffffffffffffffffffffffffffffffffff16427f9b98dc69fc49895735c6e11fcbfb81940ce956845ea10514c99b7899297ad1e9858560405161011f929190610242565b60405180910390a4505050565b6000819050919050565b61013f8161012c565b82525050565b600060208201905061015a6000830184610136565b92915050565b600080fd5b600073ffffffffffffffffffffffffffffffffffffffff82169050919050565b600061019082610165565b9050919050565b6101a081610185565b81146101ab57600080fd5b50565b6000813590506101bd81610197565b92915050565b6101cc8161012c565b81146101d757600080fd5b50565b6000813590506101e9816101c3565b92915050565b60008060006060848603121561020857610207610160565b5b6000610216868287016101ae565b9350506020610227868287016101da565b9250506040610238868287016101da565b9150509250925092565b60006040820190506102576000830185610136565b6102646020830184610136565b939250505056fea2646970667358221220c9f1b0aff873a4176590ca328289d8d5466145ebf4b5dcbb0e23666bdc1654d664736f6c634300080d0033",
  "immutableReferences": {},
  "source": "// SPDX-License-Identifier: MIT\npragma solidity >=0.4.22 <0.9.0;\n\ncontract Pharmacist{\n    uint weight;\n    uint quantity;\n\n    event NewUpdate(\n        uint indexed date,\n        address indexed from,\n        address indexed to,\n        uint weight,\n        uint quantity\n    );\n\n    function update(address to, uint _weight, uint _quantity) external{\n        // require(_weight==40,'error');\n        weight = _weight;\n        quantity = _quantity;\n        emit NewUpdate(block.timestamp,msg.sender,to,_weight,_quantity);\n    }\n\n    function getWeight() external view returns(uint){\n        return weight;\n    }\n\n    function getQuantity() external view returns(uint){\n        return quantity;\n    }\n}",
  "sourcePath": "/Users/arjunrajloomba/Desktop/Me/medichain/contracts/pharmacist.sol",
  "compiler": {
    "name": "solc",
    "version": "0.8.13+commit.abaa5c0e.Emscripten.clang"
  },
  "schemaVersion": "3.4.7",
  "updatedAt": "2022-04-16T05:44:37.151Z",
  "networkType": "ethereum",
  "devdoc": {
    "kind": "dev",
    "methods": {},
    "version": 1
  },
  "userdoc": {
    "kind": "user",
    "methods": {},
    "version": 1
  }
}