{
  "contractName": "VendingMachine",
  "abi": [
    {
      "inputs": [],
      "stateMutability": "nonpayable",
      "type": "constructor"
    },
    {
      "inputs": [
        {
          "internalType": "address",
          "name": "",
          "type": "address"
        }
      ],
      "name": "cupcakeBalances",
      "outputs": [
        {
          "internalType": "uint256",
          "name": "",
          "type": "uint256"
        }
      ],
      "stateMutability": "view",
      "type": "function",
      "constant": true
    },
    {
      "inputs": [],
      "name": "owner",
      "outputs": [
        {
          "internalType": "address",
          "name": "",
          "type": "address"
        }
      ],
      "stateMutability": "view",
      "type": "function",
      "constant": true
    },
    {
      "inputs": [
        {
          "internalType": "uint256",
          "name": "_data",
          "type": "uint256"
        }
      ],
      "name": "setData",
      "outputs": [],
      "stateMutability": "nonpayable",
      "type": "function"
    },
    {
      "inputs": [],
      "name": "getBalance",
      "outputs": [
        {
          "internalType": "uint256",
          "name": "",
          "type": "uint256"
        }
      ],
      "stateMutability": "view",
      "type": "function",
      "constant": true
    }
  ],
  "bytecode": "0x608060405234801561001057600080fd5b50336000806101000a81548173ffffffffffffffffffffffffffffffffffffffff021916908373ffffffffffffffffffffffffffffffffffffffff1602179055506064600160003073ffffffffffffffffffffffffffffffffffffffff1673ffffffffffffffffffffffffffffffffffffffff168152602001908152602001600020819055506102a6806100a56000396000f3fe608060405234801561001057600080fd5b506004361061004c5760003560e01c806312065fe0146100515780635b4b73a91461006f5780638da5cb5b1461008b578063e18a7b92146100a9575b600080fd5b6100596100d9565b6040516100669190610142565b60405180910390f35b6100896004803603810190610084919061018e565b6100e3565b005b6100936100ed565b6040516100a091906101fc565b60405180910390f35b6100c360048036038101906100be9190610243565b610111565b6040516100d09190610142565b60405180910390f35b6000600254905090565b8060028190555050565b60008054906101000a900473ffffffffffffffffffffffffffffffffffffffff1681565b60016020528060005260406000206000915090505481565b6000819050919050565b61013c81610129565b82525050565b60006020820190506101576000830184610133565b92915050565b600080fd5b61016b81610129565b811461017657600080fd5b50565b60008135905061018881610162565b92915050565b6000602082840312156101a4576101a361015d565b5b60006101b284828501610179565b91505092915050565b600073ffffffffffffffffffffffffffffffffffffffff82169050919050565b60006101e6826101bb565b9050919050565b6101f6816101db565b82525050565b600060208201905061021160008301846101ed565b92915050565b610220816101db565b811461022b57600080fd5b50565b60008135905061023d81610217565b92915050565b6000602082840312156102595761025861015d565b5b60006102678482850161022e565b9150509291505056fea26469706673582212209a5d620c9d33d2f4d063105740f04eccae08f9ec4d927c20821a78b846bc6b6064736f6c634300080d0033",
  "immutableReferences": {},
  "source": "// SPDX-License-Identifier: MIT\npragma solidity >=0.4.22 <0.9.0;\n\ncontract VendingMachine {\n\n    // Declare state variables of the contract\n    address public owner;\n    mapping (address => uint) public cupcakeBalances;\n    uint data;\n\n    // When 'VendingMachine' contract is deployed:\n    // 1. set the deploying address as the owner of the contract\n    // 2. set the deployed smart contract's cupcake balance to 100\n    constructor() {\n        owner = msg.sender;\n        cupcakeBalances[address(this)] = 100;\n        data;\n    }\n\n    function setData(uint _data) external {\n        data = _data;\n    }\n\n    function getBalance() external view returns(uint) {\n        return data;\n    }\n\n    // Allow the owner to increase the smart contract's cupcake balance\n    // function refill(uint amount) external returns(uint) {\n    //     // require(msg.sender == owner, \"Only the owner can refill.\");\n    //     data = data + 10;\n    //     return data;\n    //     // cupcakeBalances[address(this)] += amount;\n    // }\n\n    // Allow anyone to purchase cupcakes\n    // function purchase(uint amount) public payable {\n    //     require(msg.value >= amount * 1 ether, \"You must pay at least 1 ETH per cupcake\");\n    //     require(cupcakeBalances[address(this)] >= amount, \"Not enough cupcakes in stock to complete this purchase\");\n    //     cupcakeBalances[address(this)] -= amount;\n    //     cupcakeBalances[msg.sender] += amount;\n    // }\n}\n",
  "sourcePath": "/Users/arjunrajloomba/Desktop/Me/medichain/contracts/VendingMachine.sol",
  "compiler": {
    "name": "solc",
    "version": "0.8.13+commit.abaa5c0e.Emscripten.clang"
  },
  "schemaVersion": "3.4.7",
  "updatedAt": "2022-04-15T02:27:13.566Z",
  "networkType": "ethereum",
  "devdoc": {
    "kind": "dev",
    "methods": {},
    "version": 1
  },
  "userdoc": {
    "kind": "user",
    "methods": {},
    "version": 1
  }
}